:0400000006EF00F017
:10000800CBEFE2F0000E946E956E976E966E996E39
:10001800986E826E836E876EE3ECE2F01FECF2F06E
:1000280025ECE3F09EECE2F030ECE4F09DECE3F03C
:100038001EEF00F02EECF2F0C0ECE4F0D8ECE4F0A7
:040048001EEF00F0B7
:020000040001F9
:10C52800416C61726D206F6E0A00416C61726D2002
:10C538006F66660A000E236F246F256F266F120040
:10C54800010E256312002851236312002951246328
:10C5580012009D8012002F6EB9ECE2F01200306ECE
:10C56800316E326EBCECE2F012002F2EFED71200B4
:10C57800316EC2ECE2F0302EFBD71200326EC8ECFE
:10C58800E2F0312EFBD71200322EFED71200D0EC8B
:10C59800E2F0DCECE2F01100F2A41200F294342B89
:10C5A800140E34631200000E346F2AECE3F012000C
:10C5B8009EA01200841E9E903FECF2F01200000E26
:10C5C800346F880ED56E070ECD6EF28C9D80F28E7C
:10C5D8001200410E086F8A0E096FC7ECE3F000C025
:10C5E8000CF001C00DF002C00EF00A0E0F6F03C070
:10C5F8002EF004ECE4F000C00CF001C00DF002C015
:10C608000EF00A0E0F6F03C02DF004ECE4F000C02A
:10C618000CF001C00DF002C00EF00A0E0F6F03C03F
:10C628002CF004ECE4F003C02BF02C51300F72EC2A
:10C63800E4F02B51300F72ECE4F0AA0EAFECE2F00C
:10C648001200000E276F286F296F2A6FA4ECE2F002
:10C65800272B3C0E2763120035ECE3F0000E276F02
:10C668001200282B41ECE3F047ECE3F04DECE3F04B
:10C6780053ECE3F059ECE3F012000C0E28631200BF
:10C6880063ECE3F01200180E2863120063ECE3F089
:10C698001200240E2863120063ECE3F01200300E3F
:10C6A8002863120063ECE3F012003C0E28631200CA
:10C6B8006AECE3F063ECE3F0000E286F1200292B1C
:10C6C8003C0E29631200000E296F12002A2B0C0E53
:10C6D8002A631200000E2A6F120004EE00F0010E09
:10C6E800F86EC50EF76E280EF66E090E336E090049
:10C6F800F5CFEEFF332EFBD7090EFF0F24EE00F027
:10C708005DECE4F0120004EE00F0010EF86EC50EC8
:10C71800F76E320EF66E0A0E336E0900F5CFEEFF95
:10C72800332EFBD70A0EFF0F24EE00F05DECE4F089
:10C738001200ABECE4F0B9ECE4F0A8ECE3F0B2ECF6
:10C74800E4F0B7ECE3F01200ADECE3F0B2ECE3F0A8
:10C758001200010E256387ECE3F01200000E25633A
:10C7680071ECE3F01200000E0A6F26C00BF0EDEC3E
:10C77800E2F03A0E72ECE4F0000E0A6F23C00BF000
:10C78800EDECE2F0120009510B03F3CF00F0F4CF07
:10C7980001F0000E026F036F08510B03F3CF05F091
:10C7A800F4CF06F0000E046F076F04510023055103
:10C7B800012306510223075103230A510903F3CF2A
:10C7C80005F0F4CF06F0000E046F076F0451002344
:10C7D8000551012306510223075103230A51080377
:10C7E800F3CF06F0F4CF07F0000E046F056F045185
:10C7F8000023055101230651022307510323120088
:10C808000C510F03F3CF00F0F4CF01F0000E026FCC
:10C81800036F0D510F03F3CF05F0F4CF06F0000EB0
:10C82800046F076F045100230551012306510223A9
:10C83800075103230E510F03F3CF06F0F4CF07F08F
:10C84800000E046F056F04510023055101230651A2
:10C8580002230751032312007F9C7F8E8A6AC00E31
:10C86800936E280E95ECE4F0300E64ECE4F00A0EBA
:10C878009CECE4F0280E64ECE4F00A0E9CECE4F086
:10C88800280E64ECE4F00A0E9CECE4F00F0E64EC65
:10C89800E4F00A0E9CECE4F0010E64ECE4F0020E05
:10C8A80095ECE4F0060E64ECE4F00A0E9CECE4F07F
:10C8B8001200226EDE5072ECE4F0222EFBD712003A
:10C8C800216E21380F0B8A6E8A9883ECE4F0215090
:10C8D8000F0B8A6E8A9883ECE4F01200216E2138DF
:10C8E8000F0B8A6E8A8883ECE4F021500F0B8A6E56
:10C8F8008A8883ECE4F00A0E9CECE4F01200000055
:10C9080000000000000000000000000000008A8A0B
:10C9180000000000000000000000000000008A9AEB
:10C928001200206EFA0E9CECE4F0202EFBD71200C9
:10C938001E6E1E3A0F0E1E141F6EF00E1E16A6EC6B
:10C94800E4F01200000E1E061F5AFDE21200010E4E
:10C9580064ECE4F0020E95ECE4F01200C00E64EC16
:10C96800E4F00A0E9CECE4F01200800E64ECE4F0B3
:10C978000A0E9CECE4F012000F0E9A6EF00E886E10
:10C98800100E1A6FAFECE2F088CF17F0F00E9A6E27
:10C998000F0E886E100E1A6FAFECE2F088CF18F009
:10C9A80018511714196F1200E5ECE4F0EBECE4F001
:10C9B800FDECE4F039ECE5F041ECE5F049ECE5F0AC
:10C9C8001200180E1963120007ECE5F01200280E89
:10C9D8001963120028C01BF029C01CF02AC01DF0E2
:10C9E80023C028F024C029F026C02AF017ECE5F06F
:10C9F8001200480E19631200162B030E166312005C
:10CA0800010E166F1200F29AC0ECE4F027ECE5F084
:10CA180030ECE5F039ECE5F041ECE5F02EECF2F025
:10CA280053ECE5F0F0D7F29AC0ECE4F027ECE5F02F
:10CA380030ECE5F039ECE5F041ECE5F02EECF2F005
:10CA480059ECE5F0F0D7110E196312009BECE5F0F4
:10CA5800700EB3ECE2F01200120E196312006DECC6
:10CA6800E5F0700EB3ECE2F01200410E196312000B
:10CA7800010E256F9DECE3F01200420E19631200BF
:10CA8800000E256F9DECE3F01200820E1963120070
:10CA9800000E256F876E9D909DECE3F01200880EC6
:10CAA80019631200F28A1EEF00F0880E1963120053
:10CAB800F28A28C023F029C024F02AC026F01BC01F
:10CAC80028F01CC029F01DC02AF09DECE3F01EEFF1
:10CAD80000F0282B79ECE5F07FECE5F085ECE5F04B
:10CAE8008BECE5F091ECE5F012000C0E28631200D7
:10CAF80063ECE3F01200180E2863120063ECE3F015
:10CB08001200240E2863120063ECE3F01200300ECA
:10CB18002863120063ECE3F012003C0E2863120055
:10CB280063ECE3F06AECE3F0000E286F12006AECA5
:10CB3800E3F0050E2927360E296512003C0E295F01
:10CB480012007FE884E889E78FE794E699E59EE399
:10CB5800A3E2A8E0ADDEB1DBB6D9BAD6BED3C2CF68
:10CB6800C6CCCAC8CEC4D1C0D4BCD7B8DAB3DCAF3F
:10CB7800DFAAE1A5E3A0E49BE596E691E78CE887C8
:10CB8800E882E87CE877E772E66DE568E463E35EEF
:10CB9800E159DF54DC4FDA4AD746D442D13ECE3A87
:10CBA800CA36C632C22FBE2BBA28B625B123AD204D
:10CBB800A81EA31C9E1B991994188F1789178416F1
:10CBC8007F167A1675176F176A186519601B5B1C34
:10CBD800561E51204D2348254428402B3C2F3832DF
:10CBE8003436303A2D3E2A422746244B224F1F54D2
:10CBF8001D591B5E1A631968186D17721677167C13
:10CC080016821687178C189119961A9B1BA01DA5BA
:10CC18001FAA22AF24B427B82ABC2DC030C434C8F8
:10CC280038CC3CCF40D344D648D94DDB51DE56E012
:10CC38005BE260E365E56AE66FE775E77AE87FE857
:10CC480082E887E88CE791E696E59BE4A0E3A5E116
:10CC5800AADFAFDCB3DAB8D7BCD4C0D1C4CEC8CA57
:10CC6800CCC6CFC3D3BED6BAD9B6DBB1DEADE0A849
:10CC7800E2A3E39EE599E694E78FE789E884E87FF5
:10CC8800E87AE775E76FE66AE565E360E25BE05638
:10CC9800DE51DB4DD948D644D340CF3CCC38C834DC
:10CCA800C430C02DBC2AB827B424AF22AA1FA51DA2
:10CCB800A01B9B1A961991188C17871682167C163A
:10CCC800771672176D186819631A5E1B591D541F61
:10CCD8004F224B244627422A3E2D3A3036343238EA
:10CCE8002F3B2B4028442548234D20511E561C5BC2
:10CCF8001B601965186A176F1775167A167F1684E0
:10CD08001789178F189419991B9E1CA31EA820AD6C
:10CD180023B125B628BA2BBE2FC232C636CA3ACEA0
:10CD28003ED142D446D74ADA4FDC54DF59E15EE3BC
:10CD380063E468E56DE672E777E87CE882E800007E
:10CD48007FE0AFD3D3B0E07FD34FB02B7F1E4F2B04
:10CD58002B4E1E7F2BAF4ED37FE07FE2B0D5D5B1EF
:10CD6800E27FD54EB1297F1C4E29294D1C7F29B061
:10CD78004DD57FE27FE4B1D6D6B2E47FD64DB22856
:10CD88007F1A4D28284C1A7F28B14CD67FE47FE6BD
:10CD9800B2D8D8B3E67FD84CB3267F184C26264B9A
:10CDA800187F26B24BD87FE67F818486898B8E9048
:10CDB8009395989A9C9FA1A3A6A8AAACAFB1B3B526
:10CDC800B7B9BBBDBFC1C3C5C6C8CACBCDCED0D10C
:10CDD800D3D4D5D7D8D9DADBDCDDDEDEDFE0E0E19D
:10CDE800E1E2E2E2E3E3E3E3E3E3E3E3E2E2E2E115
:10CDF800E1E0DFDFDEDDDCDBDAD9D8D7D6D5D3D288
:10CE0800D1CFCECCCBC9C7C5C4C2C0BEBCBAB8B6D8
:10CE1800B4B2B0AEABA9A7A5A2A09E9B99969492D6
:10CE28008F8D8A888583807E7B797674716F6C6A32
:10CE3800686563605E5C59575553504E4C4A484686
:10CE48004442403E3C3A3937353332302F2D2C2B73
:10CE5800292827262524232221201F1F1E1D1D1CAB
:10CE68001C1C1B1B1B1B1B1B1B1B1C1C1C1D1D1EFE
:10CE78001E1F202021222324252627292A2B2D2E58
:10CE8800303133343638393B3D3F41434547494BD0
:10CE98004D4F525456585B5D5F626466696B6E70A5
:10CEA8007375787A7D7F7F7F7F817F837F857F879A
:10CEB8007F897F8B7F8D7F8F7F917F937F957F97F2
:10CEC8007F997F9B7F9D7F9F7FA17FA37FA57FA762
:10CED8007FA97FAB7FAD7FAF7FB17FB37FB57FB7D2
:10CEE8007FB97FBB7FBD7FBF7FC17FC37FC57FC742
:10CEF8007FC97FCB7FCD7FCF7FD17FD37FD57FD7B2
:10CF08007FD97F7F7F817F83808580878089808BA1
:10CF1800808D818F81918193819582978299829B5F
:10CF2800829D829F83A183A383A583A783A984ABC2
:10CF380084AD84AF84B184B385B585B785B985BB25
:10CF480085BD86BF86C186C386C587C787C987CB87
:10CF580087CD87CF88D188D388D588D788D97F7F50
:10CF68007F818083808581878189818B828D828F73
:10CF780083918393849584968498859A859C869ECC
:10CF880086A086A287A487A688A888AA89AC89AE25
:10CF980089B08AB28AB48BB68BB88BBA8CBC8CBE7B
:10CFA8008DC08DC28EC38EC58EC78FC98FCB90CDD5
:10CFB80090CF90D191D391D592D77F7F8081808374
:10CFC800818581878289838A838C848E85908592E6
:10CFD800869486968798889A889C899D8A9F8AA134
:10CFE8008BA38BA58CA78DA98DAB8EAD8EAF8FB083
:10CFF80090B290B491B692B892BA93BC93BE94C0D2
:10D0080095C295C396C596C797C998CB98CD99CF21
:10D018009AD19AD39BD57F7F8081818381848286B0
:10D028008388848A858C868E868F87918893899554
:10D038008A978A998B9A8C9C8D9E8EA08EA28FA49B
:10D0480090A591A792A993AB93AD94AF95B096B2E2
:10D0580097B497B698B899B99ABB9BBD9BBF9CC12A
:10D068009DC39EC49FC6A0C8A0CAA1CCA2CEA3CF70
:10D07800A4D17F7F80818182828483868488858908
:10D08800868B878D888F89908A928B948C968D97C2
:10D098008E998F9B909C919E92A093A294A395A504
:10D0A80096A797A998AA99AC9AAE9BAF9CB19DB345
:10D0B8009EB59FB6A0B8A1BAA2BCA3BDA4BFA5C186
:10D0C800A6C3A7C4A8C6A9C8AAC9ABCBACCD7F7F45
:10D0D800808181828384848585878689878A888CF4
:10D0E8008A8E8B8F8C918D928E948F969197929930
:10D0F800939B949C959E979F98A199A39AA49BA66D
:10D108009CA79EA99FABA0ACA1AEA2B0A3B1A5B3AA
:10D11800A6B4A7B6A8B8A9B9AABBACBCADBEAEC0E8
:10D12800AFC1B0C3B2C5B3C6B4C87F7F80808282A6
:10D13800838384858686878888898A8B8B8C8C8E66
:10D148008E8F8F9190929294939594979698979AA0
:10D15800989B9A9D9B9E9CA09EA19FA3A0A4A2A6DB
:10D16800A3A7A4A9A6AAA7ACA8ADAAAFABB0ADB215
:10D17800AEB3AFB5B1B6B2B7B3B9B5BAB6BCB7BD51
:10D18800B9BFBAC0BBC27F7F808082828383858417
:10D198008686888789888B8A8C8B8E8C8F8E918FD8
:10D1A800929094929593979498969A979B989D9A13
:10D1B8009E9BA09CA19EA39FA4A0A6A2A7A3A9A44E
:10D1C800AAA6ACA7ADA8AFAAB0ABB2ADB3AEB5AF87
:10D1D800B6B1B7B2B9B3BAB5BCB6BDB7BFB9C0BAC4
:10D1E800C2BB7F7F8180828184838584878589868D
:10D1F8008A878C888E8A8F8B918C928D948E968F4D
:10D20800979199929B939C949E959F97A198A39987
:10D21800A49AA69BA79CA99EAB9FACA0AEA1B0A2C6
:10D22800B1A3B3A5B4A6B6A7B8A8B9A9BBAABCAC04
:10D23800BEADC0AEC1AFC3B0C5B2C6B3C8B47F7FC0
:10D248008180828184828683888489858B868D8784
:10D258008F889089928A948B968C978D998E9B8FC4
:10D268009C909E91A092A293A394A595A796A99706
:10D27800AA98AC99AE9AAF9BB19CB39DB59EB69F48
:10D28800B8A0BAA1BCA2BDA3BFA4C1A5C3A6C4A788
:10D29800C6A8C8A9C9AACBABCDAC7F7F8180838142
:10D2A8008481868288838A848C858E868F869187FE
:10D2B80093889589978A998A9A8B9C8C9E8DA08E43
:10D2C800A28EA48FA590A791A992AB93AD93AF948A
:10D2D800B095B296B497B697B898B999BB9ABD9BD2
:10D2E800BF9BC19CC39DC49EC69FC8A0CAA0CCA119
:10D2F800CEA2CFA3D1A47F7F8180838085818781BF
:10D3080089828A838C838E8490859285948696867A
:10D3180098879A889C889D899F8AA18AA38BA58BC8
:10D32800A78CA98DAB8DAD8EAF8EB08FB290B49017
:10D33800B691B892BA92BC93BE93C094C295C39565
:10D34800C596C796C997CB98CD98CF99D19AD39AB5
:10D35800D59B7F7F817F83808580878189818B8131
:10D368008D828F82918393839584968498849A85FD
:10D378009C859E86A086A286A487A687A888AA8858
:10D38800AC89AE89B089B28AB48AB68BB88BBA8BAD
:10D39800BC8CBE8CC08DC28DC38EC58EC78EC98F06
:10D3A800CB8FCD90CF90D190D391D591D7927F7FCD
:10D3B800817F837F8580878089808B808D808F8126
:10D3C800918193819581978299829B829D829F8288
:10D3D800A183A383A583A783A983AB84AD84AF84EA
:10D3E800B184B384B585B785B985BB85BD85BF864E
:10D3F800C186C386C586C787C987CB87CD87CF87B0
:10D40800D188D388D588D788D9887F7F817F837F43
:10D41800857F877F897F8B7F8D7F8F7F917F937FAC
:10D42800957F977F997F9B7F9D7F9F7FA17FA37F1C
:10D43800A57FA77FA97FAB7FAD7FAF7FB17FB37F8C
:10D44800B57FB77FB97FBB7FBD7FBF7FC17FC37FFC
:10D45800C57FC77FC97FCB7FCD7FCF7FD17FD37F6C
:10D46800D57FD77FD97F7F7F817F837F857E877EAA
:10D47800897E8B7E8D7E8F7D917D937D957D977C3A
:10D48800997C9B7C9D7C9F7CA17BA37BA57BA77BB8
:10D49800A97BAB7AAD7AAF7AB17AB37AB579B77935
:10D4A800B979BB79BD79BF78C178C378C578C777B2
:10D4B800C977CB77CD77CF77D176D376D576D77630
:10D4C800D9767F7F817F837E857E877D897D8B7DF1
:10D4D8008D7C8F7C917B937B957A967A987A9A79D2
:10D4E8009C799E78A078A278A477A677A876AA7661
:10D4F800AC75AE75B075B274B474B673B873BA73EC
:10D50800BC72BE72C071C271C370C570C770C96F7A
:10D51800CB6FCD6ECF6ED16ED36DD56DD76C7F7F4F
:10D52800817E837E857D877D897C8A7B8C7B8E7AD4
:10D53800907992799478967898779A769C769D7572
:10D548009F74A174A373A573A772A971AB71AD7011
:10D55800AF70B06FB26EB46EB66DB86CBA6CBC6BAF
:10D56800BE6BC06AC269C369C568C768C967CB664C
:10D57800CD66CF65D164D364D5637F7F817E837D9B
:10D58800847D867C887B8A7A8C798E788F7891776F
:10D5980093769575977499749A739C729E71A0701E
:10D5A800A270A46FA56EA76DA96CAB6BAD6BAF6ACB
:10D5B800B069B268B467B667B866B965BB64BD637D
:10D5C800BF63C162C361C460C65FC85ECA5ECC5D2A
:10D5D800CE5CCF5BD15A7F7F817E827D847C867BC7
:10D5E800887A89798B788D778F7690759274947311
:10D5F8009672977199709B6F9C6E9E6DA06CA26BD2
:10D60800A36AA569A768A967AA66AC65AE64AF6393
:10D61800B162B361B560B65FB85EBA5DBC5CBD5B54
:10D62800BF5AC159C358C457C656C855C954CB5315
:10D63800CD527F7F817E827D847B857A87798978C8
:10D648008A778C768E748F73917292719470966FBC
:10D65800976D996C9B6B9C6A9E699F67A166A36591
:10D66800A464A663A762A960AB5FAC5EAE5DB05C64
:10D67800B15BB359B458B657B856B955BB54BC5238
:10D68800BE51C050C14FC34EC54CC64BC84A7F7F20
:10D69800807E827C837B857A8678887789768B748E
:10D6A8008C738E728F70916F926E946C956B976A73
:10D6B80098689A679B669D649E63A062A160A35F59
:10D6C800A45EA65CA75BA95AAA58AC57AD56AF543E
:10D6D800B053B251B350B54FB64DB74CB94BBA4928
:10D6E800BC48BD47BF45C044C2437F7F807E827C23
:10D6F800837B84798678877688758A738B728C7039
:10D708008E6F8F6D906C926A936994679666976432
:10D7180098639A619B609C5E9E5D9F5BA05AA2582D
:10D72800A357A455A654A752A851AA4FAB4EAD4C27
:10D73800AE4BAF49B148B247B345B544B642B7411D
:10D74800B93FBA3EBB3C7F7F807D817C837A8479F8
:10D7580085778675877488728A708B6F8C6D8D6CEF
:10D768008E6A8F6891679265936394629560975FFC
:10D77800985D995B9A5A9B589C579E559F53A05207
:10D78800A150A24EA34DA54BA64AA748A846A94515
:10D79800AA43AC42AD40AE3EAF3DB03BB239B33820
:10D7A800B4367F7F807D817C827A837884768575A4
:10D7B80086738771886F896E8A6C8B6A8C688D67AF
:10D7C8008E658F6390629160925E935C945B9559CD
:10D7D80096579755985499529A509B4F9C4D9D4BEC
:10D7E8009E499F48A046A144A242A341A43FA53D0B
:10D7F800A63BA73AA838A936AA35AB33AC317F7F08
:10D80800807D817B817A8278837684748572867044
:10D81800866F876D886B89698A678A658B648C6275
:10D828008D608E5E8E5C8F5A9059915792559353A6
:10D838009351944F954E964C974A974898469945D8
:10D848009A439B419B3F9C3D9D3B9E3A9F38A03607
:10D85800A034A132A230A32FA42D7F7F807D807BAE
:10D86800817981778275837483728470856E856C03
:10D87800866A866887668864886289618A5F8A5D45
:10D888008B5B8B598C578D558D538E518E4F8F4E88
:10D89800904C904A91489246924493429340943EC9
:10D8A800953C953B96399637973598339831992F0B
:10D8B8009A2D9A2B9B297F7F7F7D807B807981772A
:10D8C800817581738271826F836D836B84698468CB
:10D8D8008466856485628660865E865C875A87581A
:10D8E8008856885489528950894E8A4C8A4A8B486E
:10D8F8008B468B448C428C408D3E8D3C8E3B8E39C2
:10D908008E378F358F339031902F902D912B912911
:10D9180092277F7F7F7D7F7B80798077807580737A
:10D928008071816F816D816B816982678265826395
:10D938008261825F835D835B8359835783558453F8
:10D948008451844F844D844B85498547854585435B
:10D958008541863F863D863B8639873787358733BD
:10D968008731872F882D882B8829882788257F7FCE
:10D978007F7D7F7B7F797F777F757F737F717F6FF7
:10D988007F6D7F6B7F697F677F657F637F617F5F67
:10D998007F5D7F5B7F597F577F557F537F517F4FD7
:10D9A8007F4D7F4B7F497F477F457F437F417F3F47
:10D9B8007F3D7F3B7F397F377F357F337F317F2FB7
:10D9C8007F2D7F2B7F297F277F257F7F7F7D7F7B13
:10D9D8007E797E777E757E737E717D6F7D6D7D6BC2
:10D9E8007D697C677C657C637C617C5F7B5D7B5B40
:10D9F8007B597B577B557A537A517A4F7A4D7A4BBC
:10DA080079497947794579437941783F783D783B39
:10DA180078397737773577337731772F762D762BB7
:10DA28007629762776257F7F7F7D7E7B7E797D7739
:10DA38007D757D737C717C6F7B6D7B6B7A697A6891
:10DA48007A66796479627860785E785C775A775814
:10DA58007656765475527550754E744C744A7348A0
:10DA68007346734472427240713E713C703B703928
:10DA780070376F356F336E316E2F6E2D6D2B6D29AC
:10DA88006C277F7F7E7D7E7B7D797D777C757B743F
:10DA98007B727A70796E796C786A78687766766462
:10DAA80076627561745F745D735B735972577155F3
:10DAB80071537051704F6F4E6E4C6E4A6D486C4684
:10DAC8006C446B426B406A3E693C693B6839683715
:10DAD800673566336631652F642D642B63297F7F34
:10DAE8007E7D7D7B7D7A7C787B767A74797278709E
:10DAF800786F776D766B7569746774657364726235
:10DB08007160705E705C6F5A6E596D576C556B53CF
:10DB18006B516A4F694E684C674A67486646654567
:10DB280064436341633F623D613B603A5F385E3600
:10DB38005E345D325C305B2F5A2D7F7F7E7D7D7C2D
:10DB48007C7A7B787A76797578737771766F756E6B
:10DB5800746C736A7268716770656F636E626D600A
:10DB68006C5E6B5C6A5B69596857675566546552A9
:10DB78006450634F624D614B60495F485E465D4447
:10DB88005C425B415A3F593D583B573A56385536E7
:10DB98005435533352317F7F7E7D7D7C7B7A7A7911
:10DBA80079777875777476727470736F726D716C3B
:10DBB800706A6F686D676C656B636A626960675FDE
:10DBC800665D655B645A6358625760555F535E5281
:10DBD8005D505C4E5B4D594B584A57485646554523
:10DBE800544352425140503E4F3D4E3B4C394B38C6
:10DBF8004A367F7F7E7E7C7C7B7B7A7978787776E5
:10DC08007675747373727270706F6F6D6E6C6C6A08
:10DC18006B696A6768666764666364616360625EAD
:10DC2800605D5F5B5E5A5C585B575A555854575253
:10DC38005651544F534E514C504B4F494D484C47F9
:10DC48004B45494448424741453F443E433C7F7F1A
:10DC58007E7E7C7C7B7B797A787876777576737430
:10DC6800727370726F706D6F6C6E6A6C696B676AD5
:10DC7800666864676366616460635E625D605B5F7B
:10DC88005A5E585C575B555A5458525751564F5420
:10DC98004E534C514B50494F484D474C454B4449C6
:10DCA800424841473F453E443C437F7F7D7E7C7DE3
:10DCB8007A7B797A777975787477727670746F73FE
:10DCC8006D726C716A70686F676D656C636B626AA0
:10DCD80060695F675D665B655A6458635762556043
:10DCE800535F525E505D4E5C4D5B4B594A584857E6
:10DCF800465645554354425240513E503D4F3B4E87
:10DD0800394C384B364A7F7F7D7E7C7D7A7C787BA8
:10DD1800767A7579737871776F766E756C746A73C5
:10DD2800687267716570636F626E606D5E6C5C6B64
:10DD38005B6A5969576855675466526550644F6302
:10DD48004D624B614960485F465E445D425C415BA1
:10DD58003F5A3D593B583A57385636553554335340
:10DD680031527F7F7D7E7B7D7A7D787C767B747A6D
:10DD7800727970786F786D776B766975677465748A
:10DD88006473627260715E705C705A6F596E576D21
:10DD9800556C536B516B4F6A4E694C684A674867BC
:10DDA80046664565436441633F633D623B613A6053
:10DDB800385F365E345E325D305C2F5B2D5A7F7F74
:10DDC8007D7E7B7E797D777D757C747B727B707AB6
:10DDD8006E796C796A786878667764766276617548
:10DDE8005F745D745B7359735772557153715170D9
:10DDF8004F704E6F4C6E4A6E486D466C446C426B69
:10DE0800406B3E6A3C693B693968376835673366F9
:10DE180031662F652D642B6429637F7F7D7F7B7E30
:10DE2800797E777D757D737D717C6F7C6D7B6B7B77
:10DE3800697A687A667A6479627960785E785C78FB
:10DE48005A77587756765476527550754E754C7485
:10DE58004A74487346734473427240723E713C710F
:10DE68003B7039703770356F336F316E2F6E2D6E92
:10DE78002B6D296D276C7F7F7D7F7B7F797E777EF9
:10DE8800757E737E717E6F7D6D7D6B7D697D677C30
:10DE9800657C637C617C5F7C5D7B5B7B597B577BAE
:10DEA800557B537A517A4F7A4D7A4B7A497947792B
:10DEB8004579437941793F783D783B7839783777A8
:10DEC8003577337731772F772D762B762976277626
:10DED80025767F7F7D7F7B7F797F777F757F737FD7
:10DEE800717F6F7F6D7F6B7F697F677F657F637FE2
:10DEF800617F5F7F5D7F5B7F597F577F557F537F52
:10DF0800517F4F7F4D7F4B7F497F477F457F437FC1
:10DF1800417F3F7F3D7F3B7F397F377F357F337F31
:10DF2800317F2F7F2D7F2B7F297F277F257F7F7F45
:10DF38007D7F7B7F798077807580738071806F812A
:10DF48006D816B81698167826582638261825F828C
:10DF58005D835B83598357835583538451844F84EE
:10DF68004D844B84498547854585438541853F8652
:10DF78003D863B86398637873587338731872F87B4
:10DF88002D882B882988278825887F7F7D7F7B801F
:10DF9800798077817581738171826F826D836B83DC
:10DFA8006984688466846485628560865E865C862A
:10DFB8005A87588756885488528950894E894C8A7E
:10DFC8004A8A488B468B448B428C408C3E8D3C8DD4
:10DFD8003B8E398E378E358F338F31902F902D9021
:10DFE8002B91299127927F7F7D807B807981778112
:10DFF80075827483728370846E856C856A86688680
:10E0080066876488628861895F8A5D8A5B8B598BC1
:10E01800578C558D538D518E4F8E4E8F4C904A9004
:10E02800489146924492429340933E943C953B9546
:10E03800399637963597339831982F992D9A2B9A88
:10E04800299B7F7F7D807B817A8178827683748427
:10E05800728570866F866D876B886989678A658A1D
:10E06800648B628C608D5E8E5C8E5A8F599057914E
:10E078005592539351934F944E954C964A9748977F
:10E0880046984599439A419B3F9B3D9C3B9D3A9EB0
:10E09800389F36A034A032A130A22FA32DA47F7FB1
:10E0A8007D807C817A827883768475857386718792
:10E0B8006F886E896C8A6A8B688C678D658E638FB2
:10E0C800629060915E925C935B94599557965597D0
:10E0D80054985299509A4F9B4D9C4B9D499E489FEE
:10E0E80046A044A142A241A33FA43DA53BA63AA70E
:10E0F80038A836A935AA33AB31AC7F7F7D807C81C7
:10E108007A8379847785758674877288708A6F8B2D
:10E118006D8C6C8D6A8E688F67916592639362943B
:10E1280060955F975D985B995A9A589B579C559E46
:10E13800539F52A050A14EA24DA34BA54AA648A753
:10E1480046A845A943AA42AC40AD3EAE3DAF3BB060
:10E1580039B238B336B47F7F7E807C827B83798402
:10E16800788676877588738A728B708C6F8E6D8FC0
:10E178006C906A9269936794669664976398619ABB
:10E18800609B5E9C5D9E5B9F5AA058A257A355A4B6
:10E1980054A652A751A84FAA4EAB4CAD4BAE49AFAF
:10E1A80048B147B245B344B542B641B73FB93EBAA4
:10E1B8003CBB7F7F7E807C827B837A85788677886C
:10E1C8007689748B738C728E708F6F916E926C944B
:10E1D8006B956A976898679A669B649D639E62A030
:10E1E80060A15FA35EA45CA65BA75AA958AA57AC16
:10E1F80056AD54AF53B051B250B34FB54DB64CB7FE
:10E208004BB949BA48BC47BD45BF44C043C27F7FEC
:10E218007E817D827B847A8579877889778A768CF6
:10E22800748E738F7291719270946F966D976C99CA
:10E238006B9B6A9C699E679F66A165A364A463A69D
:10E2480062A760A95FAB5EAC5DAE5CB05BB159B371
:10E2580058B457B656B855B954BB52BC51BE50C045
:10E268004FC14EC34CC54BC64AC87F7F7E817D8255
:10E278007C847B867A887989788B778D768F759080
:10E28800749273947296719770996F9B6E9C6D9E41
:10E298006CA06BA26AA369A568A767A966AA65AC02
:10E2A80064AE63AF62B161B360B55FB65EB85DBAC4
:10E2B8005CBC5BBD5ABF59C158C357C456C655C884
:10E2C80054C953CB52CD7F7F7E817D837D847C86EC
:10E2D8007B887A8A798C788E788F77917693759502
:10E2E80074977499739A729C719E70A070A26FA4AF
:10E2F8006EA56DA76CA96BAB6BAD6AAF69B068B260
:10E3080067B467B666B865B964BB63BD63BF62C10D
:10E3180061C360C45FC65EC85ECA5DCC5CCE5BCFBD
:10E328005AD17F7F7E817E837D857D877C897B8AAC
:10E338007B8C7A8E79907992789478967798769A79
:10E34800769C759D749F74A173A373A572A771A918
:10E3580071AB70AD70AF6FB06EB26EB46DB66CB8B5
:10E368006CBA6BBC6BBE6AC069C269C368C568C752
:10E3780067C966CB66CD65CF64D164D363D57F7F2B
:10E388007F817E837E857D877D897D8B7C8D7C8F5B
:10E398007B917B937A957A967A98799A799C789EEC
:10E3A80078A078A277A477A676A876AA75AC75AE79
:10E3B80075B074B274B473B673B873BA72BC72BE03
:10E3C80071C071C270C370C570C76FC96FCB6ECD95
:10E3D8006ECF6ED16DD36DD56CD77F7F7F817F83F4
:10E3E8007E857E877E897E8B7E8D7D8F7D917D93D8
:10E3F8007D957C977C997C9B7C9D7C9F7BA17BA356
:10E408007BA57BA77BA97AAB7AAD7AAF7AB17AB3D1
:10E4180079B579B779B979BB79BD78BF78C178C34F
:10E4280078C577C777C977CB77CD77CF76D176D3CD
:10E4380076D576D776D9020E106F680E116F000E5A
:10E44800126F280E136F480E146F5C0E156F010EB5
:10E45800166F12007F9C7F8EC6ECF3F0D1ECF3F0C0
:10E468004AECF2F05BECF2F0D4ECF2F04DECF3F0A5
:10E47800120025C086FF010EF86ECD0EF76EB00EA5
:10E48800F66EFE0E366FC3ECFBF012004FECF2F0A6
:10E4980055ECF2F01200010E16631200DCECF3F0FA
:10E4A8001200020E16631200E5ECF3F01200C8EC3D
:10E4B800FBF0CEECFBF0D4ECFBF0DAECFBF0E0EC9C
:10E4C800FBF0E6ECFBF0ECECFBF0F2ECFBF0F8EC2C
:10E4D800FBF0FEECFBF004ECFCF00AECFCF010ECBA
:10E4E800FCF016ECFCF01CECFCF022ECFCF028EC48
:10E4F800FCF02EECFCF034ECFCF03AECFCF040ECD8
:10E50800FCF046ECFCF04CECFCF052ECFCF058EC67
:10E51800FCF05EECFCF064ECFCF06AECFCF070ECF7
:10E52800FCF076ECFCF07CECFCF082ECFCF088EC87
:10E53800FCF08EECFCF094ECFCF09AECFCF0A0EC17
:10E54800FCF0A6ECFCF0ACECFCF0B2ECFCF0B8ECA7
:10E55800FCF0BEECFCF0C4ECFCF0CAECFCF0D0EC37
:10E56800FCF0D6ECFCF0DCECFCF0E2ECFCF0E8ECC7
:10E57800FCF0EEECFCF0F4ECFCF0FAECFCF000EC57
:10E58800FDF006ECFDF00CECFDF012ECFDF018ECE3
:10E59800FDF01EECFDF024ECFDF02AECFDF012007D
:10E5A80030ECFDF036ECFDF03CECFDF042ECFDF01B
:10E5B80048ECFDF04EECFDF054ECFDF05AECFDF0AB
:10E5C80060ECFDF066ECFDF06CECFDF072ECFDF03B
:10E5D80078ECFDF07EECFDF084ECFDF08AECFDF0CB
:10E5E80090ECFDF096ECFDF09CECFDF0A2ECFDF05B
:10E5F800A8ECFDF0AEECFDF0B4ECFDF0BAECFDF0EB
:10E60800C0ECFDF0C6ECFDF0CCECFDF0D2ECFDF07A
:10E61800D8ECFDF0DEECFDF0E4ECFDF0EAECFDF00A
:10E62800F0ECFDF0F6ECFDF0FCECFDF002ECFEF099
:10E6380008ECFEF00EECFEF014ECFEF01AECFEF026
:10E6480020ECFEF026ECFEF02CECFEF032ECFEF0B6
:10E6580038ECFEF03EECFEF044ECFEF04AECFEF046
:10E6680050ECFEF056ECFEF05CECFEF062ECFEF0D6
:10E6780068ECFEF06EECFEF074ECFEF07AECFEF066
:10E6880080ECFEF086ECFEF08CECFEF092ECFEF0F6
:10E69800120098ECFEF09EECFEF0A4ECFEF0AAEC62
:10E6A800FEF0B0ECFEF0B6ECFEF0BCECFEF0C2EC16
:10E6B800FEF0C8ECFEF0CEECFEF0D4ECFEF0DAECA6
:10E6C800FEF0E0ECFEF0E6ECFEF0ECECFEF0F2EC36
:10E6D800FEF0F8ECFEF0FEECFEF004ECFFF00AECC5
:10E6E800FFF010ECFFF016ECFFF01CECFFF022EC52
:10E6F800FFF028ECFFF02EECFFF034ECFFF03AECE2
:10E70800FFF040ECFFF046ECFFF04CECFFF052EC71
:10E71800FFF058ECFFF05EECFFF064ECFFF06AEC01
:10E72800FFF070ECFFF076ECFFF07CECFFF082EC91
:10E73800FFF088ECFFF08EECFFF094ECFFF09AEC21
:10E74800FFF0A0ECFFF0A6ECFFF0ACECFFF0B2ECB1
:10E75800FFF0B8ECFFF0BEECFFF0C4ECFFF0CAEC41
:10E76800FFF0D0ECFFF0D6ECFFF0DCECFFF0E2ECD1
:10E77800FFF0E8ECFFF0EEECFFF0F4ECFFF0FAEC61
:10E78800FFF01200010EF86ECB0EF76E4A0EF66E11
:10E79800FE0E366FADECFBF01200010EF86ECC0EDB
:10E7A800F76E480EF66EFE0E366FADECFBF01200FB
:10E7B800010EF86ECD0EF76E460EF66E10C036F0EE
:10E7C8001200010EF86ECD0EF76E480EF66E11C0EF
:10E7D80036F0010EB7ECFBF01200010EF86ECE0E0B
:10E7E800F76EAE0EF66E15C036F0ADECFBF012000B
:10E7F800010EF86ECF0EF76E0A0EF66E15C036F0E3
:10E80800ADECFBF01200010EF86ECF0EF76E660E3F
:10E81800F66E15C036F0ADECFBF01200010EF86E86
:10E82800CF0EF76EC20EF66E15C036F0ADECFBF0EB
:10E838001200010EF86ED00EF76E1E0EF66E15C0A1
:10E8480036F0ADECFBF01200010EF86ED00EF76E4C
:10E858007A0EF66E15C036F0ADECFBF01200010E24
:10E86800F86ED00EF76ED60EF66E15C036F0ADEC1B
:10E87800FBF01200010EF86ED10EF76E320EF66E36
:10E8880015C036F0ADECFBF01200010EF86ED10E9B
:10E89800F76E8E0EF66E15C036F0ADECFBF012007A
:10E8A800010EF86ED10EF76EEA0EF66E15C036F050
:10E8B800ADECFBF01200010EF86ED20EF76E460EAC
:10E8C800F66E15C036F0ADECFBF01200010EF86ED6
:10E8D800D20EF76EA20EF66E15C036F0ADECFBF058
:10E8E8001200010EF86ED20EF76EFE0EF66E15C00F
:10E8F80036F0ADECFBF01200010EF86ED30EF76E99
:10E908005A0EF66E15C036F0ADECFBF01200010E93
:10E91800F86ED30EF76EB60EF66E15C036F0ADEC87
:10E92800FBF01200010EF86ED40EF76E120EF66EA2
:10E9380015C036F0ADECFBF01200010EF86ED40EE7
:10E94800F76E6E0EF66E15C036F0ADECFBF01200E9
:10E95800010EF86ED40EF76ECA0EF66E15C036F0BC
:10E96800ADECFBF01200010EF86ED50EF76E260E18
:10E97800F66E15C036F0ADECFBF01200010EF86E25
:10E98800D50EF76E820EF66E15C036F0ADECFBF0C4
:10E998001200010EF86ED50EF76EDE0EF66E15C07B
:10E9A80036F0ADECFBF01200010EF86ED60EF76EE5
:10E9B8003A0EF66E15C036F0ADECFBF01200010E03
:10E9C800F86ED60EF76E960EF66E15C036F0ADECF4
:10E9D800FBF01200010EF86ED60EF76EF20EF66E10
:10E9E80015C036F0ADECFBF01200010EF86ED70E34
:10E9F800F76E4E0EF66E15C036F0ADECFBF0120059
:10EA0800010EF86ED70EF76EAA0EF66E15C036F028
:10EA1800ADECFBF01200010EF86ED80EF76E060E84
:10EA2800F66E15C036F0ADECFBF01200010EF86E74
:10EA3800D80EF76E620EF66E15C036F0ADECFBF030
:10EA48001200010EF86ED80EF76EBE0EF66E15C0E7
:10EA580036F0ADECFBF01200010EF86ED90EF76E31
:10EA68001A0EF66E15C036F0ADECFBF01200010E72
:10EA7800F86ED90EF76E760EF66E15C036F0ADEC60
:10EA8800FBF01200010EF86ED90EF76ED20EF66E7C
:10EA980015C036F0ADECFBF01200010EF86EDA0E80
:10EAA800F76E2E0EF66E15C036F0ADECFBF01200C8
:10EAB800010EF86EDA0EF76E8A0EF66E15C036F095
:10EAC800ADECFBF01200010EF86EDA0EF76EE60EF2
:10EAD800F66E15C036F0ADECFBF01200010EF86EC4
:10EAE800DB0EF76E420EF66E15C036F0ADECFBF09D
:10EAF8001200010EF86EDB0EF76E9E0EF66E15C054
:10EB080036F0ADECFBF01200010EF86EDB0EF76E7E
:10EB1800FA0EF66E15C036F0ADECFBF01200010EE1
:10EB2800F86EDC0EF76E560EF66E15C036F0ADECCC
:10EB3800FBF01200010EF86EDC0EF76EB20EF66EE8
:10EB480015C036F0ADECFBF01200010EF86EDD0ECC
:10EB5800F76E0E0EF66E15C036F0ADECFBF0120037
:10EB6800010EF86EDD0EF76E6A0EF66E15C036F001
:10EB7800ADECFBF01200010EF86EDD0EF76EC60E5E
:10EB8800F66E15C036F0ADECFBF01200010EF86E13
:10EB9800DE0EF76E220EF66E15C036F0ADECFBF009
:10EBA8001200010EF86EDE0EF76E7E0EF66E15C0C0
:10EBB80036F0ADECFBF01200010EF86EDE0EF76ECB
:10EBC800DA0EF66E15C036F0ADECFBF01200010E51
:10EBD800F86EDF0EF76E360EF66E15C036F0ADEC39
:10EBE800FBF01200010EF86EDF0EF76E920EF66E55
:10EBF80015C036F0ADECFBF01200010EF86EDF0E1A
:10EC0800F76EEE0EF66E15C036F0ADECFBF01200A6
:10EC1800010EF86EE00EF76E4A0EF66E15C036F06D
:10EC2800ADECFBF01200010EF86EE00EF76EA60ECA
:10EC3800F66E15C036F0ADECFBF01200010EF86E62
:10EC4800E10EF76E020EF66E15C036F0ADECFBF075
:10EC58001200010EF86EE10EF76E5E0EF66E15C02C
:10EC680036F0ADECFBF01200010EF86EE10EF76E17
:10EC7800BA0EF66E15C036F0ADECFBF01200010EC0
:10EC8800F86EE20EF76E160EF66E15C036F0ADECA5
:10EC9800FBF01200010EF86EE20EF76E720EF66EC1
:10ECA80015C036F0ADECFBF01200010EF86EE20E66
:10ECB800F76ECE0EF66E15C036F0ADECFBF0120016
:10ECC800010EF86EE30EF76E2A0EF66E15C036F0DA
:10ECD800ADECFBF01200010EF86EE30EF76E860E37
:10ECE800F66E15C036F0ADECFBF01200010EF86EB2
:10ECF800E30EF76EE20EF66E15C036F0ADECFBF0E3
:10ED08001200010EF86ECE0EF76EAE0EF66E14C03F
:10ED180036F0ADECFBF01200010EF86ECF0EF76E78
:10ED28000A0EF66E14C036F0ADECFBF01200010EC0
:10ED3800F86ECF0EF76E660EF66E14C036F0ADECB8
:10ED4800FBF01200010EF86ECF0EF76EC20EF66ED3
:10ED580014C036F0ADECFBF01200010EF86ED00EC8
:10ED6800F76E1E0EF66E14C036F0ADECFBF0120016
:10ED7800010EF86ED00EF76E7A0EF66E14C036F0ED
:10ED8800ADECFBF01200010EF86ED00EF76ED60E49
:10ED9800F66E14C036F0ADECFBF01200010EF86E02
:10EDA800D10EF76E320EF66E14C036F0ADECFBF0F5
:10EDB8001200010EF86ED10EF76E8E0EF66E14C0AC
:10EDC80036F0ADECFBF01200010EF86ED10EF76EC6
:10EDD800EA0EF66E14C036F0ADECFBF01200010E30
:10EDE800F86ED20EF76E460EF66E14C036F0ADEC25
:10EDF800FBF01200010EF86ED20EF76EA20EF66E40
:10EE080014C036F0ADECFBF01200010EF86ED20E15
:10EE1800F76EFE0EF66E14C036F0ADECFBF0120085
:10EE2800010EF86ED30EF76E5A0EF66E14C036F059
:10EE3800ADECFBF01200010EF86ED30EF76EB60EB5
:10EE4800F66E14C036F0ADECFBF01200010EF86E51
:10EE5800D40EF76E120EF66E14C036F0ADECFBF061
:10EE68001200010EF86ED40EF76E6E0EF66E14C018
:10EE780036F0ADECFBF01200010EF86ED40EF76E12
:10EE8800CA0EF66E14C036F0ADECFBF01200010E9F
:10EE9800F86ED50EF76E260EF66E14C036F0ADEC91
:10EEA800FBF01200010EF86ED50EF76E820EF66EAC
:10EEB80014C036F0ADECFBF01200010EF86ED50E62
:10EEC800F76EDE0EF66E14C036F0ADECFBF01200F5
:10EED800010EF86ED60EF76E3A0EF66E14C036F0C6
:10EEE800ADECFBF01200010EF86ED60EF76E960E22
:10EEF800F66E14C036F0ADECFBF01200010EF86EA1
:10EF0800D60EF76EF20EF66E14C036F0ADECFBF0CE
:10EF18001200010EF86ED70EF76E4E0EF66E14C084
:10EF280036F0ADECFBF01200010EF86ED70EF76E5E
:10EF3800AA0EF66E14C036F0ADECFBF01200010E0E
:10EF4800F86ED80EF76E060EF66E14C036F0ADECFD
:10EF5800FBF01200010EF86ED80EF76E620EF66E18
:10EF680014C036F0ADECFBF01200010EF86ED80EAE
:10EF7800F76EBE0EF66E14C036F0ADECFBF0120064
:10EF8800010EF86ED90EF76E1A0EF66E14C036F032
:10EF9800ADECFBF01200010EF86ED90EF76E760E8E
:10EFA800F66E14C036F0ADECFBF01200010EF86EF0
:10EFB800D90EF76ED20EF66E14C036F0ADECFBF03B
:10EFC8001200010EF86EDA0EF76E2E0EF66E14C0F1
:10EFD80036F0ADECFBF01200010EF86EDA0EF76EAB
:10EFE8008A0EF66E14C036F0ADECFBF01200010E7E
:10EFF800F86EDA0EF76EE60EF66E14C036F0ADEC6B
:10F00800FBF01200010EF86EDB0EF76E420EF66E84
:10F0180014C036F0ADECFBF01200010EF86EDB0EFA
:10F02800F76E9E0EF66E14C036F0ADECFBF01200D3
:10F03800010EF86EDB0EF76EFA0EF66E14C036F09F
:10F04800ADECFBF01200010EF86EDC0EF76E560EFA
:10F05800F66E14C036F0ADECFBF01200010EF86E3F
:10F06800DC0EF76EB20EF66E14C036F0ADECFBF0A7
:10F078001200010EF86EDD0EF76E0E0EF66E14C05D
:10F0880036F0ADECFBF01200010EF86EDD0EF76EF7
:10F098006A0EF66E14C036F0ADECFBF01200010EED
:10F0A800F86EDD0EF76EC60EF66E14C036F0ADECD7
:10F0B800FBF01200010EF86EDE0EF76E220EF66EF1
:10F0C80014C036F0ADECFBF01200010EF86EDE0E47
:10F0D800F76E7E0EF66E14C036F0ADECFBF0120043
:10F0E800010EF86EDE0EF76EDA0EF66E14C036F00C
:10F0F800ADECFBF01200010EF86EDF0EF76E360E67
:10F10800F66E14C036F0ADECFBF01200010EF86E8E
:10F11800DF0EF76E920EF66E14C036F0ADECFBF013
:10F128001200010EF86EDF0EF76EEE0EF66E14C0CA
:10F1380036F0ADECFBF01200010EF86EE00EF76E43
:10F148004A0EF66E14C036F0ADECFBF01200010E5C
:10F15800F86EE00EF76EA60EF66E14C036F0ADEC43
:10F16800FBF01200010EF86EE10EF76E020EF66E5D
:10F1780014C036F0ADECFBF01200010EF86EE10E93
:10F18800F76E5E0EF66E14C036F0ADECFBF01200B2
:10F19800010EF86EE10EF76EBA0EF66E14C036F078
:10F1A800ADECFBF01200010EF86EE20EF76E160ED3
:10F1B800F66E14C036F0ADECFBF01200010EF86EDE
:10F1C800E20EF76E720EF66E14C036F0ADECFBF080
:10F1D8001200010EF86EE20EF76ECE0EF66E14C037
:10F1E80036F0ADECFBF01200010EF86EE30EF76E90
:10F1F8002A0EF66E14C036F0ADECFBF01200010ECC
:10F20800F86EE30EF76E860EF66E14C036F0ADECAF
:10F21800FBF01200010EF86EE30EF76EE20EF66ECA
:10F2280014C036F0ADECFBF01200010EF86ECE0EF5
:10F23800F76EAE0EF66E13C036F0ADECFBF01200B2
:10F24800010EF86ECF0EF76E0A0EF66E13C036F08A
:10F25800ADECFBF01200010EF86ECF0EF76E660EE5
:10F26800F66E13C036F0ADECFBF01200010EF86E2E
:10F27800CF0EF76EC20EF66E13C036F0ADECFBF093
:10F288001200010EF86ED00EF76E1E0EF66E13C049
:10F2980036F0ADECFBF01200010EF86ED00EF76EF2
:10F2A8007A0EF66E13C036F0ADECFBF01200010ECC
:10F2B800F86ED00EF76ED60EF66E13C036F0ADECC3
:10F2C800FBF01200010EF86ED10EF76E320EF66EDC
:10F2D80013C036F0ADECFBF01200010EF86ED10E43
:10F2E800F76E8E0EF66E13C036F0ADECFBF0120022
:10F2F800010EF86ED10EF76EEA0EF66E13C036F0F8
:10F30800ADECFBF01200010EF86ED20EF76E460E51
:10F31800F66E13C036F0ADECFBF01200010EF86E7D
:10F32800D20EF76EA20EF66E13C036F0ADECFBF0FF
:10F338001200010EF86ED20EF76EFE0EF66E13C0B6
:10F3480036F0ADECFBF01200010EF86ED30EF76E3E
:10F358005A0EF66E13C036F0ADECFBF01200010E3B
:10F36800F86ED30EF76EB60EF66E13C036F0ADEC2F
:10F37800FBF01200010EF86ED40EF76E120EF66E48
:10F3880013C036F0ADECFBF01200010EF86ED40E8F
:10F39800F76E6E0EF66E13C036F0ADECFBF0120091
:10F3A800010EF86ED40EF76ECA0EF66E13C036F064
:10F3B800ADECFBF01200010EF86ED50EF76E260EBE
:10F3C800F66E13C036F0ADECFBF01200010EF86ECD
:10F3D800D50EF76E820EF66E13C036F0ADECFBF06C
:10F3E8001200010EF86ED50EF76EDE0EF66E13C023
:10F3F80036F0ADECFBF01200010EF86ED60EF76E8B
:10F408003A0EF66E13C036F0ADECFBF01200010EAA
:10F41800F86ED60EF76E960EF66E13C036F0ADEC9B
:10F42800FBF01200010EF86ED60EF76EF20EF66EB5
:10F4380013C036F0ADECFBF01200010EF86ED70EDB
:10F44800F76E4E0EF66E13C036F0ADECFBF0120000
:10F45800010EF86ED70EF76EAA0EF66E13C036F0D0
:10F46800ADECFBF01200010EF86ED80EF76E060E2A
:10F47800F66E13C036F0ADECFBF01200010EF86E1C
:10F48800D80EF76E620EF66E13C036F0ADECFBF0D8
:10F498001200010EF86ED80EF76EBE0EF66E13C08F
:10F4A80036F0ADECFBF01200010EF86ED90EF76ED7
:10F4B8001A0EF66E13C036F0ADECFBF01200010E1A
:10F4C800F86ED90EF76E760EF66E13C036F0ADEC08
:10F4D800FBF01200010EF86ED90EF76ED20EF66E22
:10F4E80013C036F0ADECFBF01200010EF86EDA0E28
:10F4F800F76E2E0EF66E13C036F0ADECFBF0120070
:10F50800010EF86EDA0EF76E8A0EF66E13C036F03C
:10F51800ADECFBF01200010EF86EDA0EF76EE60E97
:10F52800F66E13C036F0ADECFBF01200010EF86E6B
:10F53800DB0EF76E420EF66E13C036F0ADECFBF044
:10F548001200010EF86EDB0EF76E9E0EF66E13C0FB
:10F5580036F0ADECFBF01200010EF86EDB0EF76E24
:10F56800FA0EF66E13C036F0ADECFBF01200010E89
:10F57800F86EDC0EF76E560EF66E13C036F0ADEC74
:10F58800FBF01200010EF86EDC0EF76EB20EF66E8E
:10F5980013C036F0ADECFBF01200010EF86EDD0E74
:10F5A800F76E0E0EF66E13C036F0ADECFBF01200DF
:10F5B800010EF86EDD0EF76E6A0EF66E13C036F0A9
:10F5C800ADECFBF01200010EF86EDD0EF76EC60E04
:10F5D800F66E13C036F0ADECFBF01200010EF86EBB
:10F5E800DE0EF76E220EF66E13C036F0ADECFBF0B1
:10F5F8001200010EF86EDE0EF76E7E0EF66E13C068
:10F6080036F0ADECFBF01200010EF86EDE0EF76E70
:10F61800DA0EF66E13C036F0ADECFBF01200010EF8
:10F62800F86EDF0EF76E360EF66E13C036F0ADECE0
:10F63800FBF01200010EF86EDF0EF76E920EF66EFA
:10F6480013C036F0ADECFBF01200010EF86EDF0EC1
:10F65800F76EEE0EF66E13C036F0ADECFBF012004E
:10F66800010EF86EE00EF76E4A0EF66E13C036F015
:10F67800ADECFBF01200010EF86EE00EF76EA60E70
:10F68800F66E13C036F0ADECFBF01200010EF86E0A
:10F69800E10EF76E020EF66E13C036F0ADECFBF01D
:10F6A8001200010EF86EE10EF76E5E0EF66E13C0D4
:10F6B80036F0ADECFBF01200010EF86EE10EF76EBD
:10F6C800BA0EF66E13C036F0ADECFBF01200010E68
:10F6D800F86EE20EF76E160EF66E13C036F0ADEC4D
:10F6E800FBF01200010EF86EE20EF76E720EF66E67
:10F6F80013C036F0ADECFBF01200010EF86EE20E0E
:10F70800F76ECE0EF66E13C036F0ADECFBF01200BD
:10F71800010EF86EE30EF76E2A0EF66E13C036F081
:10F72800ADECFBF01200010EF86EE30EF76E860EDC
:10F73800F66E13C036F0ADECFBF01200010EF86E59
:10F74800E30EF76EE20EF66E13C036F0ADECFBF08A
:10F7580012000900F5CF82FF362E0900F5CF83FF8E
:10F76800362EF7D71200AFECE2F00900F5CF82FF92
:10F77800362E0900F5CF83FF362EF5D71200090083
:10F78800F5CF87FF362E1200000E27631200F1EF27
:10F79800F3F01200010E27631200FCEFF3F01200E1
:10F7A800020E2763120007EFF4F01200030E27631E
:10F7B800120012EFF4F01200040E276312001DEF7E
:10F7C800F4F01200050E2763120028EFF4F012007F
:10F7D800060E2763120033EFF4F01200070E2763BA
:10F7E80012003EEFF4F01200080E2763120049EFF2
:10F7F800F4F01200090E2763120054EFF4F012001F
:10F808000A0E276312005FEFF4F012000B0E276355
:10F8180012006AEFF4F012000C0E2763120075EF65
:10F82800F4F012000D0E2763120080EFF4F01200BE
:10F838000E0E276312008BEFF4F012000F0E2763F1
:10F84800120096EFF4F01200100E27631200A1EFD9
:10F85800F4F01200110E27631200ACEFF4F012005E
:10F86800120E27631200B7EFF4F01200130E27638D
:10F878001200C2EFF4F01200140E27631200CDEF4D
:10F88800F4F01200150E27631200D8EFF4F01200FE
:10F89800160E27631200E3EFF4F01200170E276329
:10F8A8001200EEEFF4F01200180E27631200F9EFC1
:10F8B800F4F01200190E2763120004EFF5F012009D
:10F8C8001A0E276312000FEFF5F012001B0E2763C4
:10F8D80012001AEFF5F012001C0E2763120025EF34
:10F8E800F5F012001D0E2763120030EFF5F012003C
:10F8F8001E0E276312003BEFF5F012001F0E276360
:10F90800120046EFF5F01200200E2763120051EFA7
:10F91800F5F01200210E276312005CEFF5F01200DB
:10F92800220E2763120067EFF5F01200230E2763FB
:10F93800120072EFF5F01200240E276312007DEF1B
:10F94800F5F01200250E2763120088EFF5F012007B
:10F95800260E2763120093EFF5F01200270E276397
:10F9680012009EEFF5F01200280E27631200A9EF8F
:10F97800F5F01200290E27631200B4EFF5F012001B
:10F988002A0E27631200BFEFF5F012002B0E276333
:10F998001200CAEFF5F012002C0E27631200D5EF03
:10F9A800F5F012002D0E27631200E0EFF5F01200BB
:10F9B8002E0E27631200EBEFF5F012002F0E2763CF
:10F9C8001200F6EFF5F01200300E2763120001EF77
:10F9D800F6F01200310E276312000CEFF6F0120059
:10F9E800320E2763120017EFF6F01200330E27636A
:10F9F800120022EFF6F01200340E276312002DEFEA
:10FA0800F6F01200350E2763120038EFF6F01200F8
:10FA1800360E2763120043EFF6F01200370E276305
:10FA280012004EEFF6F01200380E2763120059EF5D
:10FA3800F6F01200390E2763120064EFF6F0120098
:10FA48003A0E276312006FEFF6F012003B0E2763A1
:10FA580012007AEFF6F01200000E2863120085EF0C
:10FA6800F6F01200010E2863120090EFF6F0120073
:10FA7800020E286312009BEFF6F01200030E2863B3
:10FA88001200A6EFF6F01200040E28631200B1EF80
:10FA9800F6F01200050E28631200BCEFF6F0120013
:10FAA800060E28631200C7EFF6F01200070E28634F
:10FAB8001200D2EFF6F01200080E28631200DDEFF4
:10FAC800F6F01200090E28631200E8EFF6F01200B3
:10FAD8000A0E28631200F3EFF6F012000B0E2863EB
:10FAE8001200FEEFF6F012000C0E2863120009EF68
:10FAF800F7F012000D0E2863120014EFF7F0120051
:10FB08000E0E286312001FEFF7F012000F0E286385
:10FB180012002AEFF7F01200100E2863120035EFDA
:10FB2800F7F01200110E2863120040EFF7F01200F0
:10FB3800120E286312004BEFF7F01200130E286321
:10FB4800120056EFF7F01200140E2863120061EF4E
:10FB5800F7F01200150E286312006CEFF7F0120090
:10FB6800160E2863120077EFF7F01200170E2863BD
:10FB7800120082EFF7F01200180E286312008DEFC2
:10FB8800F7F01200190E2863120098EFF7F0120030
:10FB98001A0E28631200A3EFF7F012001B0E286359
:10FBA8001200AEEFF7F012001C0E28631200B9EF36
:10FBB800F7F012001D0E28631200C4EFF7F01200D0
:10FBC8001E0E28631200CFEFF7F012001F0E2863F5
:10FBD8001200DAEFF7F01200200E28631200E5EFAA
:10FBE800F7F01200210E28631200F0EFF7F0120070
:10FBF800220E28631200FBEFF7F01200230E286391
:10FC0800120006EFF8F01200240E2863120011EF1C
:10FC1800F8F01200250E286312001CEFF8F012000D
:10FC2800260E2863120027EFF8F01200270E28632B
:10FC3800120032EFF8F01200280E286312003DEF90
:10FC4800F8F01200290E2863120048EFF8F01200AD
:10FC58002A0E2863120053EFF8F012002B0E2863C7
:10FC680012005EEFF8F012002C0E2863120069EF04
:10FC7800F8F012002D0E2863120074EFF8F012004D
:10FC88002E0E286312007FEFF8F012002F0E286363
:10FC980012008AEFF8F01200300E2863120095EF78
:10FCA800F8F01200310E28631200A0EFF8F01200ED
:10FCB800320E28631200ABEFF8F01200330E2863FF
:10FCC8001200B6EFF8F01200340E28631200C1EFEC
:10FCD800F8F01200350E28631200CCEFF8F012008D
:10FCE800360E28631200D7EFF8F01200370E28639B
:10FCF8001200E2EFF8F01200380E28631200EDEF60
:10FD0800F8F01200390E28631200F8EFF8F012002C
:10FD18003A0E2863120003EFF9F012003B0E286335
:10FD280012000EEFF9F01200000E2963120019EF0D
:10FD3800F9F01200010E2963120024EFF9F0120005
:10FD4800020E296312002FEFF9F01200030E296347
:10FD580012003AEFF9F01200040E2963120045EF81
:10FD6800F9F01200050E2963120050EFF9F01200A5
:10FD7800060E296312005BEFF9F01200070E2963E3
:10FD8800120066EFF9F01200080E2963120071EFF5
:10FD9800F9F01200090E296312007CEFF9F0120045
:10FDA8000A0E2963120087EFF9F012000B0E29637F
:10FDB800120092EFF9F012000C0E296312009DEF69
:10FDC800F9F012000D0E29631200A8EFF9F01200E5
:10FDD8000E0E29631200B3EFF9F012000F0E29631B
:10FDE8001200BEEFF9F01200100E29631200C9EFDD
:10FDF800F9F01200110E29631200D4EFF9F0120085
:10FE0800120E29631200DFEFF9F01200130E2963B6
:10FE18001200EAEFF9F01200140E29631200F5EF50
:10FE2800F9F01200150E2963120000EFFAF0120023
:10FE3800160E296312000BEFFAF01200170E296351
:10FE4800120016EFFAF01200180E2963120021EFC3
:10FE5800FAF01200190E296312002CEFFAF01200C2
:10FE68001A0E2963120037EFFAF012001B0E2963ED
:10FE7800120042EFFAF012001C0E296312004DEF37
:10FE8800FAF012001D0E2963120058EFFAF0120062
:10FE98001E0E2963120063EFFAF012001F0E296389
:10FEA80012006EEFFAF01200200E2963120079EFAB
:10FEB800FAF01200210E2963120084EFFAF0120002
:10FEC800220E296312008FEFFAF01200230E296325
:10FED80012009AEFFAF01200240E29631200A5EF1F
:10FEE800FAF01200250E29631200B0EFFAF01200A2
:10FEF800260E29631200BBEFFAF01200270E2963C1
:10FF08001200C6EFFAF01200280E29631200D1EF92
:10FF1800FAF01200290E29631200DCEFFAF0120041
:10FF28002A0E29631200E7EFFAF012002B0E29635C
:10FF38001200F2EFFAF012002C0E29631200FDEF06
:10FF4800FAF012002D0E2963120008EFFBF01200E0
:10FF58002E0E2963120013EFFBF012002F0E2963F7
:10FF680012001EEFFBF01200300E2963120029EF79
:10FF7800FBF01200310E2963120034EFFBF012007F
:10FF8800320E296312003FEFFBF01200330E296393
:10FF980012004AEFFBF01200340E2963120055EFED
:10FFA800FBF01200350E2963120060EFFBF012001F
:10FFB800360E296312006BEFFBF01200370E29632F
:10FFC800120076EFFBF01200380E2963120081EF61
:10FFD800FBF01200390E296312008CEFFBF01200BF
:10FFE8003A0E2963120097EFFBF012003B0E2963CB
:08FFF8001200A2EFFBF0120061
:020000040030CA
:0700000015137F7CF98B91C1
:06000800FFC0FFE0FF4015
:00000001FF
